:200000000C944F050C9477050C9477050C9477050C9477050C9477050C9477050C94770528
:200020000C9477050C9477050C9477050C9477050C9477050C9477050C9477050C947705E0
:200040000C948F170C9477050C94FF170C94D9170C9477050C9477050C9477050C94770588
:200060000C9431180C94770500000000003E5B4F5B3E3E6B4F6B3E1C3E7C3E1C183C7E3C1B
:20008000181C577D571C1C5E7F5E1C00183C1800FFE7C3E7FF0018241800FFE7DBE7FF304C
:2000A000483A060E2629792926407F050507407F05253F5A3CE73C5A7F3E1C1C08081C1C4B
:2000C0003E7F14227F22145F5F005F5F06097F017F006689956A606060606094A2FFA294B5
:2000E00008047E040810207E201008082A1C08081C2A08081E101010100C1E0C1E0C3038AA
:200100003E3830060E3E0E06000000000000005F00000007000700147F147F14242A7F2A35
:2001200012231308646236495620500008070300001C2241000041221C002A1C7F1C2A0841
:20014000083E080800807030000808080808000060600020100804023E5149453E00427FE7
:20016000400072494949462141494D331814127F1027454545393C4A4949314121110907B9
:200180003649494936464949291E000014000000403400000008142241141414141400414D
:2001A00022140802015909063E415D594E7C1211127C7F494949363E414141227F414141F1
:2001C0003E7F494949417F090909013E414151737F0808087F00417F41002040413F017FB0
:2001E000081422417F404040407F021C027F7F0408107F3E4141413E7F090909063E41511A
:20020000215E7F09192946264949493203017F01033F4040403F1F2040201F3F4038403F63
:20022000631408146303047804036159494D43007F4141410204081020004141417F0402E7
:200240000102044040404040000307080020545478407F284444383844444428384444284A
:200260007F385454541800087E090218A4A49C787F0804047800447D40002040403D007F4A
:200280001028440000417F40007C047804787C080404783844444438FC182424181824245A
:2002A00018FC7C08040408485454542404043F44243C4040207C1C2040201C3C4030403C47
:2002C00044281028444C9090907C4464544C440008364100000077000000413608000201BA
:2002E0000204023C2623263C1EA1A161123A4040207A385454555921555579412254547893
:2003000042215554784020545579400C1E52721239555555593954545459395554545800EA
:2003200000457C410002457D420001457C407D1211127DF0282528F07C54554500205454FD
:200340007C547C0A097F4932494949323A4444443A324A4848303A4141217A3A4240207810
:20036000009DA0A07D3D4242423D3D4040403D3C24FF2424487E4943662B2FFC2F2BFF0992
:2003800029F620C0887E090320545479410000447D413048484A32384040227A007A0A0AAA
:2003A000727D0D19317D2629292F28262929292630484D4020380808080808080808382FE0
:2003C00010C8ACBA2F102834FA00007B000008142A142222142A14085500550055AA55AA2F
:2003E00055AAFF55FF55FF000000FF00101010FF00141414FF001010FF00FF1010F010F0C0
:20040000141414FC001414F700FF0000FF00FF1414F404FC141417101F10101F101F141468
:20042000141F00101010F0000000001F101010101F10101010F010000000FF10101010105C
:2004400010101010FF10000000FF140000FF00FF00001F10170000FC04F414141710171488
:2004600014F404F40000FF00F714141414141414F700F7141414171410101F101F141414FB
:20048000F4141010F010F000001F101F0000001F14000000FC140000F010F01010FF10FF95
:2004A000141414FF141010101F00000000F010FFFFFFFFFFF0F0F0F0F0FFFFFF00000000F6
:2004C00000FFFF0F0F0F0F0F3844443844FC4A4A4A347E02020606027E027E0263554941B7
:2004E000633844443C04407E201E2006027E020299A5E7A5991C2A492A1C4C7201724C300E
:200500004A4D4D303048784830BC625A463D3E494949007E0101017E2A2A2A2A2A44445F93
:20052000444440514A444040444A51400000FF0103E080FF000008086B6B0836123624364D
:20054000060F090F06000018180000001010003040FF0101001F01011E00191D1712003CCD
:200560003C3C3C0000000000000103070F1F3F7F0080C0E0F0F8FCFEDB40A4A62EAF20006C
:20058000A1C8D300408DAED580A80000600000000000000000000000000000E00000000067
:2005A00000000000000000000001E00000000000000000000000000001F000000000000069
:2005C0000000000000000003F00000000000000000000000000007F0000000000000000031
:2005E000000000000007F8000000000000000000000000000FF800000003C0007E000001B3
:20060000E0007F0FF800000003C000FE000001E000FFEFF800000003C000FE000001E0004A
:20062000FFFFF800000003C000F00000000F007FFE7FC0000003C000F00000000F003FFE47
:200640007FF83FF1FBCFFCFEF3BC3DEFE01FFE7FFF7FFBFFDFFEFEFFBC3DEFE01FC6FFFFDB
:200660007FFBFFDFFEFEFFBC3DEFE00FE3C7FE787BC3DE1EF0FFBC3DEF0007FF87FC787BA3
:20068000C3DE1EF0F83C3DEF0001FFFFF0007BC3C01EF0F03C3DEF0001F37FE03FFBC3CFD9
:2006A000FEF0F03C3DEF0003E33F807FFBC3DFFEF0F03C3DEF0007E73C00787BC3DE1EF021
:2006C000F03C3DEF0007FFBE00787BC3DE1EF0F03C3DEF0007FFFE00787BC3DE1EF0F03C32
:2006E0003DEF000FFFFE007FFBFFDFFEF0F03FFDEFE00FFFFF007FFBFFDFFEF0F03FFDEF13
:20070000E00FF9FF003E79F9CF9EF0F01F3DE7E01FF1FF0000000000000000000000001FA4
:2007200080FF007FFFFFFFFFFFFFFFFFFFE01C007F007FFFFFFFFEB46D888D18E000001F82
:20074000007FFFFFFFFE95AD7DB577E000000F007FFFFFFFFEA5AD9D8D19E0000006007FD1
:20076000FFFFFFFEB5ADEDB57EE00000000000018000000000000000000003800000000018
:20078000000000000007C000000000000000000007C00000000000000000000FC0000000FC
:2007A0000000000000001FE00000000000000000001FE00000000000000000003FE000001C
:2007C000000000000000003FF00000000000000000007FF0000000000000001FF87FF000F5
:2007E0000000000000003FFE7FF0000000000000003FFF7FF0000000000000001FFFFBE0A7
:20080000000000000000000FFFF9FFC00000000000000FFFF9FFF800000000000007FFF11D
:20082000FFFF00000000000003FC73FFFF80000000000001FE3FFFFF80000000000000FF0F
:200840001E0FFF000000000000007FFE1FFC000000000000003FFFFFF8000000000000009F
:200860000FDFFFE0000000000000001F19FFC0000000000000003F3CFF000000000000003A
:20088000007E7CF800000000000000007FFE7C0000000000000000FFFFFC00000000000073
:2008A0000000FFFFFE0000000000000000FFFFFE0000000000000001FFEFFE000000000053
:2008C000000001FFCFFE0000000000000003FF07FE0000000000000003FC07FE0000000040
:2008E00000000003F003FE00000000000000018000FE000000000000000000007E00000007
:20090000000000000000003E000000000000000000000C000000000000078000FC00000307
:20092000C0000000078001FC000003C0000000078001FC000003C0000000078001E0000001
:20094000001E000000078001E00000001E007FE3F79FF9FDE7787BDFC0FFF7FFBFFDFDFFDF
:20096000787BDFC0FFF7FFBFFDFDFF787BDFC0F0F787BC3DE1FF787BDE00F0F787BC3DE146
:20098000F0787BDE0000F787803DE1E0787BDE007FF7879FFDE1E0787BDE00FFF787BFFD65
:2009A000E1E0787BDE00F0F787BC3DE1E0787BDE00F0F787BC3DE1E0787BDE00F0F787BC89
:2009C0003DE1E0787BDE00FFF7FFBFFDE1E07FFBDFC0FFF7FFBFFDE1E07FFBDFC07CF3F3D0
:2009E0009F3DE1E03E7BCFC00000000000000000000000FFFFFFFFFFFFFFFFFFFFC0FFFF5E
:200A0000FFFFFD68DB111A31C0FFFFFFFFFD2B5AFB6AEFC0FFFFFFFFFD4B5B3B1A33C0FF04
:200A2000FFFFFFFD6B5BDB6AFDC04F4C4544206661696C656420746F20696E697469616C3E
:200A4000697A650000000008000201000003040700000000000000000000000025002800E8
:200A60002B0000000000240027002A00040404040404040402020202020203030303030398
:200A800001020408102040800102040810200102040810202200FF21000050194F1F11248B
:200AA0001FBECFEFD8E0DEBFCDBF11E0A0E0B1E0E8EDF7E402C005900D92AE38B107D9F7A4
:200AC00023E0AEE8B1E001C01D92A238B207E1F715E0CEE4D5E004C02197FE010E94A822CE
:200AE000CD34D107C9F70E94DA190C94DF230C9400000895089590E0FC01E058F54F2491AE
:200B00008459954FFC018491882399F090E0880F991FFC01EE59F54FA591B491FC01E85ACD
:200B2000F54F859194918FB7F894EC91E22BEC938FBF0895089590E0FC01EC5BF54F249126
:200B4000FC01E058F54F3491FC01E459F54FE491EE23C9F0222339F0233001F1A8F42130FA
:200B600019F1223029F1F0E0EE0FFF1FE85AF54FA591B4918FB7F894EC91611126C03095A7
:200B80003E233C938FBF08952730A9F02830C9F0243049F7809180008F7D03C080918000B4
:200BA0008F7780938000DFCF84B58F7784BDDBCF84B58F7DFBCF8091B0008F778093B0002B
:200BC000D2CF8091B0008F7DF9CF3E2BDACF3FB7F8948091110290911202A0911302B0916B
:200BE000140226B5A89B05C02F3F19F00196A11DB11D3FBFBA2FA92F982F8827BC01CD01A2
:200C0000620F711D811D911D42E0660F771F881F991F4A95D1F708958F929F92AF92BF92D5
:200C2000CF92DF92EF92FF924B015C010E94E7056B017C010E94E7056C197D098E099F09D8
:200C4000683E734081059105A8F321E0821A9108A108B10888EEC80E83E0D81EE11CF11C3D
:200C600081149104A104B10429F7FF90EF90DF90CF90BF90AF909F908F900895AF92BF92E9
:200C8000CF92DF92EF92FF920F931F93CF93DF936C017B018B01040F151FEB015E01AE187B
:200CA000BF08C017D10759F06991D601ED91FC910190F081E02DC6010995892B79F7C5013B
:200CC000DF91CF911F910F91FF90EF90DF90CF90BF90AF900895FC01538D448D252F30E0DB
:200CE000842F90E0821B930B541710F0CF96089501970895FC01918D828D981761F0A28D9B
:200D0000AE0FBF2FB11D5D968C91928D9F5F9F73928F90E008958FEF9FEF0895FC01918D29
:200D2000828D981731F0828DE80FF11D858D90E008958FEF9FEF0895FC01918D228D892F76
:200D400090E0805C9F4F821B91098F73992708958BE892E00E949C0621E0892B09F420E0E8
:200D6000822F089580E090E0892B29F00E94A80681110C9400000895FC01A48DA80FB92F9C
:200D8000B11DA35ABF4F2C91848D90E001968F739927848FA689B7892C93A089B1898C9122
:200DA000837080648C93938D848D981306C00288F389E02D80818F7D80830895EF92FF92C9
:200DC0000F931F93CF93DF93EC0181E0888F9B8D8C8D98131AC0E889F989808185FF15C073
:200DE0009FB7F894EE89FF896083E889F98980818370806480839FBF81E090E0DF91CF9162
:200E00001F910F91FF90EF900895F62E0B8D10E00F5F1F4F0F731127E02E8C8D8E110CC003
:200E20000FB607FCFACFE889F989808185FFF5CFCE010E94BC06F1CFEB8DEC0FFD2FF11D45
:200E4000E35AFF4FF0829FB7F8940B8FEA89FB8980818062CFCFCF93DF93EC01888D882320
:200E6000B9F0AA89BB89E889F9898C9185FD03C0808186FD0DC00FB607FCF7CF8C9185FF7D
:200E8000F2CF808185FFEDCFCE010E94BC06E9CFDF91CF910895EF92FF920F931F93CF9330
:200EA000DF93EC01EC80FD806E157F050CF070C057FF04C0240F351F50E040E08E819F8197
:200EC000FA01E20FF31F8E179F071CF49C01241B350B121613060CF05BC0922F842F8695B6
:200EE000869586958E9DD0018F9DB00D11246A0F7B1FAF8DB8A1A60FB71F477049F188E016
:200F0000841B482F682F70E0FB01E059FA4FE491281708F063C0621B71092FEF30E002C0A0
:200F2000359527956A95E2F7E2230130110539F0B0F10230110561F58C91E82702C08C9194
:200F4000E82BEC93941720F12C813D81A20FB31FE92FE41BE83078F00230110521F58E2FA3
:200F60009C9190959C932C813D81A20FB31F88508830B0F7E770EE2359F0F0E0E859FA4FC0
:200F8000E49101301105F9F010F10230110519F1DF91CF911F910F91FF90EF900895E09519
:200FA0008C91E823CECF81E00115110509F480E081959E2F8C932C813D81A20FB31F9850AA
:200FC0009830C0F7D7CF8C91E82BEC93E1CFE0958C91E823FACF8C91E827F7CF01301105EE
:200FE00009F4ADCFE0F20230110509F4A5CFAE0DBF1DAECF0F931F93CF93DF9377FF04C077
:20100000260F371F70E060E0DC011496CD91DC91FB01E20FF31FCE17DF071CF49E01261BA9
:20102000370B121613064CF5FA0157FD3796A3E0F595E795AA95E1F7EC9FD001ED9FB00D8B
:20104000FC9FB00D11246A0F7B1FDC015F96ED91FC91E60FF71F4770552781E090E001C043
:20106000880F4A95EAF7482F0130110559F0A8F02E0F3F1F02301105E1F0DF91CF911F9146
:201080000F9108952E0F3F1FE217F307B1F38191DF011197842B8C93F7CF80952E0F3F1F03
:2010A000E217F30751F39191DF01119798239C93F7CFE217F30709F38191DF01119784276B
:2010C0008C93F7CF0F931F93FA01DC0156964C9156974230E9F04330A1F1413061F5149688
:2010E0004D915C91DA01AE1BBF0BFD01E21BF30B77FD0BC0DC0116964D915C916417750734
:2011000024F4AB01BF010E94FA071F910F91089514964D915C91DA01A61BB70BBD01615079
:201120007109DC0116964D915C91DA01AE1BBF0BFD01E21BF30B77FDE8CFAF010E944B07AB
:20114000E4CF16964D915C91DA01A61BB70BBD0161507109CDCF0F931F93FA01DC0156966A
:201160004C9156974230A9F0433091F1413019F514964D915C91DA01AE1BBF0BFD0131977D
:20118000F7FD04C0AB01BF010E944B071F910F91089514964D915C91DA01A61BB70BBD01B9
:2011A000DC0116964D915C91DA01AE1BBF0BFD013197621B730BF7FDE9CFDC0116964D9199
:2011C0005C91E417F50714F7AF010E94FA07DECF16964D915C91DA01A61BB70BBD01621B10
:2011E000730BCECFFC0177FD64C080859185681779070CF05EC057FD5CC08285938548171D
:2012000059070CF056C086898230B1F0833029F1813041F484819581841B950BAB01BC0184
:20122000615071092130310509F108F443C02230310509F463C0089584819581DC01A61B05
:20124000B70BBD016150710986819781DC01A41BB50BAD0141505109E5CF86819781861B5B
:20126000970BBA01AC0141505109DCCFCA0157FD0796A3E095958795AA95E1F7A481B581D7
:201280008A9F90018B9F300D9A9F300D1124620F731F078CF0A1E02DE60FF71F4770552710
:2012A00021E030E001C0220F4A95EAF78081822B80830895CA0157FD079633E09595879508
:2012C0003A95E1F7A481B5818A9F90018B9F300D9A9F300D1124620F731F078CF0A1E02D0C
:2012E000E60FF71F4770552781E090E001C0880F4A95EAF7809590818923DACFCA0157FD2D
:20130000079623E0959587952A95E1F7A481B5818A9F90018B9F300D9A9F300D1124620FB8
:20132000731F078CF0A1E02DE60FF71F4770552721E030E001C0220F4A95EAF7808182273F
:20134000B7CF08958EBD00000DB407FEFDCF8EB508958CBD9DBD08950895FC016370668B0F
:201360008481958126813781613039F0633029F091878087338722870895318720879387F5
:20138000828708952F923F924F925F926F927F928F929F92AF92BF92CF92DF92EF92FF9269
:2013A0000F931F93CF93DF93CDB7DEB76A970FB6F894DEBF0FBECDBF9A8F898F7A8369837A
:2013C0004A01D22E18870F833701BC2CDC0159962D913C915A972115310509F015C1189640
:2013E0008D919C911997681779070CF0D7C11A968D919C91481759070CF0D0C14C2C512C23
:20140000B6E0CB9E600D711D11247C876B87161617060CF0C3C1EA2DF0E0FA87E98793E094
:20142000EE0FFF1F9A95E1F7F88BEF87CF01840F951F181619060CF0B1C1A98DBA8D589654
:201440008C91811104C0BFEABD1508F4D394A98DBA8DED91FC9111970284F385E02DCD0132
:201460000995B5E0DB9EC0011124E981FA81FC83EB83312C212C9C0128593F4F388F2F8B21
:201480004A2D50E05E8B4D8BEF89F88DE20DF31D44919E828D82D12CC12C69817A81620DA6
:2014A000731D7A8B698B842F90E09C8B8B8BE98DFA8DA081B18140FF82C0F1E0BF126FC0A1
:2014C000AF126DC01C96ED91FC912F813885A4014C0D5D1D69897A89898D9A8D0995EB8938
:2014E000FC89F595E7954E2F5FEFC51AD50A6D817E818D899E89680F791F7E836D8398E036
:20150000C916D10481F6AFEF2A1A3A0AEB81FC81E40DF51DFC83EB83F5E02F16310409F059
:20152000B3CF2F81388526153705B9F0A98DBA8DED91FC91B1E0BB1257C0AB1255C06981E3
:201540007A816B5F7F4F0088F189E02D830128E030E0A401898D9A8D0995A98DBA8DED91D2
:20156000FC9111970688F789E02DCD016A960FB6F894DEBF0FBECDBFDF91CF911F910F91E6
:20158000FF90EF90DF90CF90BF90AF909F908F907F906F905F904F903F902F9009941E96D8
:2015A000ED91FC91EF80F88409851A8592014D815E816B817C81898D9A8D099590CF2F81F5
:2015C00038852615370509F48ACF31E0B31207C0A31205C01C96ED91FC91930178CF1E961E
:2015E000ED91FC917301E0CF6B857C85641975090684F785E02D73010F8518899201A401DD
:20160000898D9A8D0995A9CFF90134969491329745915491D91AB7E0DB9E400D511D112417
:20162000F901259134913C8B2B8BFA0125903490FA013296749031963491398B3296649071
:201640003196449041E04C1518F04A1508F07FC0662D062C000C770B7C836B83842D042CAE
:20166000000C990B9E838D83A98DBA8DED91FC9111970284F385E02DCD010995512CD12C68
:20168000C12CEA2DF0E0FA87E9872B2D30E03C872B87A401440D511D47FC5A95588F4F8B51
:2016A00069817A81660D711D67FC7A957E876D877989C71608F051CF2C2D30E04D815E81CC
:2016C000420F531FA985BA854A9FC0014B9F900D5A9F900D1124FC01E80DF91DF88BEF87DD
:2016E000852D612C4F89588D420F531F5E8B4D8B671408F050C044244394480E877041F426
:20170000C1010196EB89FC89E20DF31DD4901C01D7FE19C0A98DBA8DED91FC91662D70E0DE
:20172000B1E0BB1219C0AB1217C02D853E85620F731F0484F585E02D2F8138854D895E892D
:20174000898D9A8D0995DD0C6394842DD1CF1E821D821C821B8288CF4B815C81640F751FFC
:20176000AB85BC856A9FC0016B9F900D7A9F900D112469817A81680F791F0684F785E02D95
:20178000EF80F88409851A859D014F855889898D9A8D0995D8CF570CC3948ACF6A960FB684
:2017A000F894DEBF0FBECDBFDF91CF911F910F91FF90EF90DF90CF90BF90AF909F908F90CF
:2017C0007F906F905F904F903F902F9008958F929F92AF92CF92EF92FF920F931F93CF9346
:2017E000DF93EC01262F898D9A8D009709F051C06A30D1F41D861C868D8948E0849F9001C1
:2018000011248E859F85820F931F9F878E8781E090E0DF91CF911F910F91FF90EF90CF9080
:20182000AF909F908F9008956D3089F3CC88AD888F898823C1F08C859D8536E0C39E800D31
:20184000911D1124488559854817590764F44E855F851D861C8638E0A39EC0011124840F05
:20186000951F9F878E87EA88FB88088919894E855F856C857D85CE010E94C2092C898C85A5
:201880009D8546E0249F800D911D11249D878C87BECF6A3069F41D861C86FC013896E4918D
:2018A0002D898E859F85E29F800D911D1124ADCF6D3009F4ACCFFC0134963491631708F4B7
:2018C000A6CF3296E491E61708F4A1CFFC01329685909490462F431B342F47E0349F800C33
:2018E000911C1124F401329634913196E4913323A9F1EE2399F1CC88F4013596E491AD88FF
:201900004F89442301F10E2E000CFF0BE30FF11DCE9EA001CF9E500D11246C857D85460FF0
:20192000571F68857985641775076CF44E855F851D861C86FC013896E491AE9E400D511DAC
:2019400011245F874E87EA88FB88088919894E855F856C857D85CE010E94C209F4013496CA
:20196000E4912C898C859D85E29F800D911D11248DCF6F927F928F929F92AF92BF92CF9266
:20198000DF92EF92FF920F931F93CF93DF93EC016B015A0139014801E881F9810284F38584
:2019A000E02D0995E881F9810288F389E02D87019301A501B601CE010995A501480D591D2F
:2019C00041505109E881F9810288F389E02D9301B601CE010995E881F9810088F189E02D7C
:2019E0009401A501B601CE010995C60CD71CB60161507109E881F9810088F189E02D94015A
:201A0000A501CE010995E881F9810688F789E02DCE01DF91CF911F910F91FF90EF90DF9049
:201A2000CF90BF90AF909F908F907F906F9009946F927F928F929F92AF92BF92CF92DF92F8
:201A4000EF92FF920F931F93CF93DF935C01EB016A01490138018701DC01ED91FC9162172C
:201A6000730719F5641675062CF0962D872D3A01C92ED82E9601261937092F5F3F4F048C5C
:201A8000F58DE02DA301BE01C5010995DF91CF911F910F91FF90EF90DF90CF90BF90AF9066
:201AA0009F908F907F906F9008954615570591F42617370724F0892D4B01C22FD82F9E01C9
:201AC000281939092F5F3F4F068CF78DE02DA601B401DACF0284F385E02D0995D501ED9142
:201AE000FC910488F589E02D83019401A601BE01C5010995D501ED91FC910688F789E02D63
:201B0000C501DF91CF911F910F91FF90EF90DF90CF90BF90AF909F908F907F906F9009947C
:201B2000EF92FF920F931F93DC011A960D911C911B9718962D913C911997ED91FC9100A021
:201B4000F1A1E02D7B0150E040E070E060E009951F910F91FF90EF9008954F925F926F921E
:201B60007F928F929F92AF92BF92CF92DF92EF92FF920F931F93CF93DF936C012B015A0170
:201B800039014801DC01ED91FC910284F385E02D0995E201640C751CD601ED91FC91C61590
:201BA000D7055CF40088F189E02D87019401A501BE01C60109952196EFCF0688F789E02D73
:201BC000C601DF91CF911F910F91FF90EF90DF90CF90BF90AF909F908F907F906F905F9069
:201BE0004F9009948F929F92AF92BF92CF92DF92EF92FF920F931F93CF93DF93EC015B0130
:201C00004A016901E881F9810284F385E02D099595012C0D3D1D21503109E881F981048840
:201C2000F589E02D78018401A401B501CE010995E881F9810688F789E02DCE01DF91CF91B6
:201C40001F910F91FF90EF90DF90CF90BF90AF909F908F9009948F929F92AF92BF92CF929A
:201C6000DF92EF92FF920F931F93CF93DF93EC015B014A0169017801E881F9810284F38561
:201C8000E02D0995C80CD91C860101501109E881F9810488F589E02D9501A401B501CE0124
:201CA0000995E881F9810688F789E02DCE01DF91CF911F910F91FF90EF90DF90CF90BF906E
:201CC000AF909F908F900994EF92FF920F931F93DC01ED91FC9100A0F1A1E02D09951F91FF
:201CE0000F91FF90EF9008950F931F93DC01ED91FC91068CF78DE02D09951F910F910895AF
:201D00000F931F93DC01ED91FC91048CF58DE02D09951F910F910895DC01ED91FC91008471
:201D2000F185E02D09943F924F925F926F927F928F929F92AF92BF92CF92DF92EF92FF9206
:201D40000F931F93CF93DF935C017B014A016901390187E0680E711C93E0759467949A9583
:201D6000E1F72B01400E511E10E000E0312CD0E0C0E0CE0187709927330C892B59F4FE0160
:201D800083E0F595E7958A95E1F7E00FF11FE80DF91D349037FE0AC021E030E0A701B501A7
:201DA0006C0F7D1F8EE393E00E948C0E2196CC16DD06F9F68FEFE81AF80A060D171DE414C0
:201DC000F504A9F6DF91CF911F910F91FF90EF90DF90CF90BF90AF909F908F907F906F9085
:201DE0005F904F903F9008952F923F924F925F926F927F928F929F92AF92BF92CF92DF927D
:201E0000EF92FF920F931F93CF93DF9300D000D000D0CDB7DEB73C016A013E832D83FC8268
:201E2000EB825801A41AB50AB7FE03C0B194A194B1088D809E80861A970A97FE03C09194CB
:201E4000819491088A149B045CF0902F812F0D811E819D838E839C2D8D2D6B01692F782F50
:201E60000C151D055CF09D818E817E836D83692F782F902F812F8601C92ED82E1601201A32
:201E8000310A2B012D813E81421A530A57FE03C0519441945108710137FE03C03FEFE31AF5
:201EA000F30AF594E7948D819E81861797075CF5A1E0B0E0BA83A983C016D1064CF1D30130
:201EC000ED91FC910484F585E02D2B813C81A8016D817E818A149B041CF04D815E81B8013A
:201EE000C3010995E418F508F7FE0AC02D813E8189819A81280F391F3E832D83E20CF31C39
:201F00000F5F1F4FD9CF2FEF3FEF3A832983D4CF26960FB6F894DEBF0FBECDBFDF91CF9112
:201F20001F910F91FF90EF90DF90CF90BF90AF909F908F907F906F905F904F903F902F902F
:201F4000089508952091AF01260F3327331F21323105ECF420916102FC0190E080E0243067
:201F600069F082E00895A091AF012191AC0141575E4FA40FB52FB11D2C930196861798F3A1
:201F80008091AF01680F6093AF0180E0089581E008951092610281E08093600210923B02B1
:201FA00061E082E10E949B0561E083E10E949B05E9EBF0E080818E7F808380818D7F80838F
:201FC00088E48093B80085E48093BC00089510923A02109239021092680210928A020E945E
:201FE000C90F89E795E090933802809337028AE795E090933602809335020895CF93DF937F
:2020000091E090938E018823B9F0C091B800D091BA008091BC008A7B8093BC0060E082E1E1
:202020000E949B0560E083E10E949B050E94C90FD093BA00C093B800DF91CF9108958F9248
:202040009F92AF92BF92CF92DF92EF92FF920F931F93CF93DF93D0918A02D13208F0D7C032
:20206000182FC09189020E94E7056B017C018091610281116BC082E08093610210936002B8
:202080008FEF80935F0210925E02D0935D02A9E6B2E0EDE3F2E080E0D81391C010923C024B
:2020A00080913C02CC0FC82BC0933C0280913B02813009F088C010923B020E94E7056B0159
:2020C0007C0180913C028093BB008091630290916402A0916502B0916602892B8A2B8B2B09
:2020E000A1F00E94E705009163021091640220916502309166026C197D098E099F0906171C
:2021000017072807390708F442C08091BC0083FDD8CF85EC8093BC000E94E7056B017C0189
:2021200080916102823009F450C080915F028F3F09F46FC080915F02803209F46CC08091A2
:202140005F02803309F469C084E026C08091630290916402A0916502B0916602892B8A2B54
:202160008B2B09F484CF0E94E7058090630290906402A0906502B09066026C197D098E09EF
:202180009F0986169706A806B90608F070CF809162020E94FE0F85E01092680210928A02F7
:2021A00010926702DF91CF911F910F91FF90EF90DF90CF90BF90AF909F908F9008959D9171
:2021C00091938F5F69CF85EEA5CF8091630290916402A0916502B0916602892B8A2B8B2B71
:2021E00009F49ECF0E94E705009163021091640220916502309166026C197D098E099F095F
:20220000061717072807390708F08ACFC0CF81E0C3CF80E0C1CF82E0BFCF83E0BDCFCF9310
:20222000DF93EA01DC0111968D919C91DC01ED91FC910280F381E02D0995C817D90729F40D
:2022400081E00E941F1091E0811190E0892FDF91CF910895E0913A0280913902E81730F498
:20226000F0E0EB5EFD4F808190E008958FEF9FEF089590913A02809139022FEF3FEF98179E
:2022800048F4E92FF0E0EB5EFD4F208130E09F5F90933A02C90108958091390290913A0267
:2022A000891B990B0895CF92DF92EF92FF920F931F93CF93DF937C01CB018A01209167023F
:2022C000222389F0EB016B01C40ED51ECC15DD0569F06991D701ED91FC910190F081E02D1B
:2022E000C7010995F3CF642F0E94A20FC801DF91CF911F910F91FF90EF90DF90CF9008956E
:20230000CF93DF931F92CDB7DEB76983209167022223F9F020918A02203258F021E030E003
:20232000FC013383228390E080E00F90DF91CF91089580916802E82FF0E0E759FD4F998161
:2023400090838F5F8093680280938A0281E090E0ECCF61E0CE0101960E94A20FF7CF81E0B3
:202360000C941F10EF92FF920F931F93CF93DF937C01C62F80915B0390915C03009709F45F
:2023800059C020915F0331E030936702209389021092680210928A02DC01ED91FC910190E3
:2023A000F081E02D60E009958701EE24E394F12CD1E0C15080915B0390915C03CF3F91F152
:2023C000B0E2EB16F104D8F00E94AF1180915B0390915C0320915F03D0936702209389023F
:2023E0001092680210928A02DC01ED91FC910190F081E02D60E00995EE24E394F12C809117
:202400005B0390915C03F8016491DC01ED91FC910190F081E02D0995BFEFEB1AFB0A0F5F35
:202420001F4FC7CFDF91CF911F910F91FF90EF900C94AF11E0916B03F0916C039081809119
:2024400071038095892380838701C15008F438C0F80184912091590330915A03232B29F017
:202460000E94A2090F5F1F4FF0CF28E030E040E8E0916703F091680390916F03582F5423DC
:20248000D9F05081952B9083E0916903F0916A03908150917003952B9083E0916903F0916E
:2024A0006A03508190917003909595239083469521503109E9F6D6CF508190959523E3CFF0
:2024C000DF91CF911F910F91FF90EF9008951F93CF93DF93EC018D8D9E8D009721F1162F8B
:2024E00029A131E030936702209389021092680210928A02DC01ED91FC910190F081E02D66
:2025000060E009958D8D9E8DDC01ED91FC910190F081E02D612F09958D8D9E8DDF91CF915E
:202520001F910C94AF11ADA5BEA59C918BA9809589238C938B8D9C8D892B31F0862FDF915A
:20254000CF911F910C94A20928E030E080E8A9A5BAA599A9462F4823C1F04C91942B9C9355
:20256000ABA5BCA59C914AA9942B9C93ABA5BCA54C919AA9909594239C93869521503109FA
:2025800031F7DF91CF911F9108954C9190959423E6CFDF92EF92FF920F931F93CF93DF93DD
:2025A00080915B0390915C03892B09F498C02091730330917403409175035091760360E0E1
:2025C00074E284EF90E00E943420205131094109510956954795379527952093B80065E07E
:2025E00084E99AE00E94B2116091420361508EE393E00E9467122091440330914503C901DE
:20260000079697FD079633E0959587953A95E1F72091420330914303829F8001839F100D0E
:20262000929F100D1124C0915D03D0915E0380915B0390915C030C0F1D1F009709F48FC07B
:2026400020915F0331E030936702209389021092680210928A02DC01ED91FC910190F081C8
:20266000E02D60E40995EE24E394F12CDD24D39480915B0390915C030C171D0709F446C024
:20268000B0E2EB16F104D8F00E94AF1180915B0390915C0320915F03D0926702209389027D
:2026A0001092680210928A02DC01ED91FC910190F081E02D60E40995EE24E394F12C809150
:2026C0005B0390915C036991DC01ED91FC910190F081E02D0995BFEFEB1AFB0AC9CF80912C
:2026E000590390915A03892B31F080917C0390917D030E94A909E0916D03F0916E039081C2
:202700008091720380958923808369CF0E94AF1180915B0390915C03892B09F461C0209163
:202720007703309178034091790350917A0360E074E284EF90E00E943420205131094109D4
:20274000510956954795379527952093B800DF91CF911F910F91FF90EF90DF900895E091BA
:202760006B03F0916C03808190917103892B80830C171D0769F289912091590330915A03C7
:20278000232B19F00E94A209F3CF28E030E040E8E0916703F091680390916F03582F54233B
:2027A000D9F05081952B9083E0916903F0916A03908150917003952B9083E0916903F0914B
:2027C0006A03508190917003909595239083469521503109E9F6CCCF508190959523E3CFD7
:2027E000E0916D03F0916E03808190917203892B8083ADCF1F93CF93DF93EC01162F8D8D6A
:202800009E8D892BB1F12DA93EA94FA958AD60E074E284EF90E00E94342020513109410919
:20282000510956954795379527952093B80066EA111167EACE010E9467128D8D9E8D892BDE
:2028400041F129AD3AAD4BAD5CAD60E074E284EF90E00E94342020513109410951095695DF
:202860004795379527952093B800DF91CF911F9108958B8D9C8D892B21F08EAD9FAD0E943D
:20288000A909EFA5F8A990818CA9809589238083CECFEFA5F8A980819CA9892B8083E5CFC4
:2028A000CF93DF93EC018B818823A9F089819A81288131E0309367022093890210926802B2
:2028C00010928A020E94AF1191E0811190E0892FDF91CF9108950E94E70F81E08B83CE01FA
:2028E0000E945014982F8111E1CFF1CF90E080E0089580932F0370933003609331038091E9
:20290000280390912903FC01248135812330310580F0208131E03093670220938902109230
:20292000680210928A0243E050E06FE273E00C940F1108952F923F924F925F926F927F9235
:202940008F929F92AF92BF92CF92DF92EF92FF920F931F93CF93DF9380932F038091280306
:2029600090912903DC0114962D913C911597232B81F02C9131E030936702209389021092B3
:20298000680210928A0241E050E06FE273E00E940F11C0902803D090290310E000E082E0AF
:2029A000A82EB12CD1E033243A9495EE892E25EC922EF601848195817501E01AF10A8E1563
:2029C0009F0508F47C01D6012C900E94E7052B013C018091610281116FC0CE2DC13208F035
:2029E000C0E2D093610221E0C5018E199F090817190708F420E02093600230925F02109244
:202A00005E028FEF8C0F80935D02D0933C0280913C02220C282A20923C0280913B0281306C
:202A200009F095C010923B020E94E7052B013C0180913C028093BB00809163029091640258
:202A4000A0916502B0916602892B8A2B8B2BA1F00E94E70520916302309164024091650282
:202A6000509166026419750986099709261737074807590708F441C08091BC0083FDD8CFC8
:202A80009092BC000E94E7052B013C0180916102813009F45FC080915E028C1710F4C091B7
:202AA0005E02ADE3B2E0E5E1F2E080E08C1751F19D9191938F5FFACF8091630290916402B1
:202AC000A0916502B0916602892B8A2B8B2B09F480CF0E94E70520916302309164024091AE
:202AE0006502509166026419750986099709261737074807590708F06CCF809162020E9488
:202B0000FE0FC0E010923A02C0933902CE151F0409F048C0F801E85DFC4F3F01C301801B6D
:202B2000910B885293408E159F05B0F5D60111968D919C91DC01ED91FC910284F385E02DA4
:202B40000995F3018783FFEF6F1A7F0AE7CF8092BC0098CF8091630290916402A091650259
:202B6000B0916602892B8A2B8B2B09F48FCF0E94E70520916302309164024091650250914E
:202B800066026419750986099709261737074807590708F07BCFB1CF0E0D1F1D0230110518
:202BA00008F407CF80912F0390913003982789279827DF91CF911F910F91FF90EF90DF90E1
:202BC000CF90BF90AF909F908F907F906F905F904F903F902F9008952091440330914503B2
:202BE000C901079697FD079623E0959587952A95E1F72091420330914303829FA001839F7C
:202C0000500D929F500D112470E060E080915D0390915E030C94D8230E94D323FB01019051
:202C20000020E9F73197AF01461B570BDC01ED91FC910280F381E02D09948F929F92AF923E
:202C4000BF92EF92FF920F931F93CF93DF93CDB7DEB7A1970FB6F894DEBF0FBECDBF7C01D4
:202C6000FA01CB0119A2223008F42AE08E010F5D1F4F822E912CB12CA12CBF01A5019401FF
:202C80000E943420F901CA016A300CF5605DD8016E938D01232B242B252B79F790E080E08C
:202CA000109721F0BD01C7010E940E16A1960FB6F894DEBF0FBECDBFDF91CF911F910F9172
:202CC000FF90EF90BF90AF909F908F900895695CDECF2F923F924F925F926F927F928F9264
:202CE0009F92AF92BF92CF92DF92EF92FF921F93CF93DF93EC016A017B01722EAB019601F0
:202D0000CB01B6010E94A3226AE571E0811126C046015701E894B7F82FEF3FEF4FE75FE71F
:202D2000C501B4010E94A32281110CC02FEF3FEF4FE75FE7C501B4010E94D2206EE571E0D8
:202D4000181664F02FEF3FEF4FE75FE4C701B6010E9431221816B4F462E671E0CE01DF910A
:202D6000CF911F91FF90EF90DF90CF90BF90AF909F908F907F906F905F904F903F902F9021
:202D80000C940E162FEF3FEF4FE75FECC701B6010E94D22087FDE0CF20E030E0A901C701DA
:202DA000B6010E94D220312C212C87FF0DC0E881F9810190F081E02D6DE2CE0109951C0100
:202DC000F7FAF094F7F8F09410E060E070E080E09FE3711641F020E030E040E251E40E94E8
:202DE000D7201F5FF6CFA70196010E9466202B013C010E9450214B015C012AE0BC01A401A1
:202E0000CE010E941D167C01E20CF31C1123E1F1C501B4010E947F219B01AC01C301B20111
:202E20000E9465204B015C01E881F9810190F081E02D6EE2CE010995E80EF91E115020F194
:202E400020E030E040E251E4C501B4010E9436222B013C010E9450214B01B12CA12C2AE01A
:202E6000B501A401CE010E941D16E80EF91EC501B4010E947F219B01AC01C301B2010E9427
:202E800065204B015C01DACFC701DF91CF911F91FF90EF90DF90CF90BF90AF909F908F905B
:202EA0007F906F905F904F903F902F90089585ED8093BC008091630290916402A091650235
:202EC000B09166020796A11DB11D23E0B695A795979587952A95D1F72091BC0024FD03C076
:202EE00010926102089540916302509164026091650270916602452B462B472B69F30097AC
:202F0000A105B10541F02AE22A95F1F700C00197A109B109E1CF809162020C94FE0F1F9232
:202F20000F920FB60F9211242F933F938F939F93AF93BF9380910D0290910E02A0910F0246
:202F4000B091100230910C0223E0230F2D3758F50196A11DB11D20930C0280930D02909340
:202F60000E02A0930F02B09310028091110290911202A0911302B09114020196A11DB11D8F
:202F80008093110290931202A0931302B0931402BF91AF919F918F913F912F910F900FBE57
:202FA0000F901F90189526E8230F0296A11DB11DD2CF1F920F920FB60F9211242F933F9390
:202FC0004F935F936F937F938F939F93AF93BF93EF93FF938BE892E00E94BC06FF91EF91B4
:202FE000BF91AF919F918F917F916F915F914F913F912F910F900FBE0F901F9018951F9269
:203000000F920FB60F9211242F938F939F93EF93FF93E0919B02F0919C028081E091A10208
:20302000F091A20282FD1BC090818091A4028F5F8F732091A502821741F0E091A402F0E050
:20304000E557FD4F958F8093A402FF91EF919F918F912F910F900FBE0F901F901895808183
:20306000F4CF1F920F920FB60F9211242F933F934F935F936F937F938F939F93AF93BF933C
:20308000EF93FF938091B900887F803609F44AC0F0F5883209F4A7C018F5803109F49BC075
:2030A000B8F4882309F4F9C0883009F494C0FF91EF91BF91AF919F918F917F916F915F910A
:2030C0004F913F912F910F900FBE0F901F901895883109F488C0803251F780935F0214C0D9
:2030E000803409F49DC040F48033B9F38833F9F680935F0285ECB0C0803509F485C088357C
:2031000009F496C0883499F60E945717D0CF883909F48CC038F5883729F050F4883611F050
:20312000803729F683E0809361021092D10157C0883809F47BC0803919F0803809F0B7CF64
:203140008091D101803208F071C0E091D10181E08E0F8093D1018091BB00F0E0EF54FE4F5F
:2031600080833DC0803B39F0E0F4803A09F479C0883A09F09CCF84E0809361021092B00154
:203180001092AF01E0913702F091380209958091AF0181110FC081E08093AF0110928F0162
:2031A00009C0803C09F4A6CF883C09F4A3CF883B09F07DCFE091B00181E08E0F8093B001F9
:2031C000F0E0E157FE4F80818093BB009091B0018091AF0129C080913C028093BB0085ECC1
:2031E0008093BC0064CF90915E0280915D02981758F5E0915E0281E08E0F80935E02F0E0CE
:20320000E35CFD4F8081E9CFE0915E0281E08E0F80935E028091BB00F0E0E35CFD4F8083FE
:2032200090915E0280915D029817C8F285E8D8CFE0915E0281E08E0F80935E028091BB0012
:20324000F0E0E35CFD4F80838091600281115CCF81E080933B0284EA8093BC0010926102ED
:2032600026CF85EC8093BC00109261028091D101803230F4E091D101F0E0EF54FE4F108226
:203280006091D10170E0E0913502F091360281EB91E009951092D1010ACF10925F0234CFEC
:2032A000EBE8F2E01382128248EE53E060E070E044835583668377838EE091E091838083CF
:2032C00085EC90E09587848784EC90E09787868780EC90E0918B808B81EC90E0938B828BD0
:2032E00082EC90E0958B848B86EC90E0978B868B118E128E138E148EA2E3B3E013961C92BB
:203300001E92129714964D935D936D937C93179780E291E011969C938E93EEE3F3E013821A
:20332000128220E830E03583248380E490E0978386833187208793878287168A1586148634
:203340001786168681E0858B848B4FEF5FEF538B428B518B408B878B108E128E118E82E382
:2033600091E091838083148E138EB68FA58F10A2178E8FEF84A385A386A387A380A780E803
:203380009AE1A6E0B0E085AB96ABA7ABB0AF80EA96E8A1E0B0E081AF92AFA3AFB4AF80E5F6
:2033A00086AF17AEE8E2F3E0128214821382368325830895CF93DF9300D000D000D0CDB7F1
:2033C000DEB7789484B5826084BD84B5816084BD85B5826085BD85B5816085BD80916E005B
:2033E000816080936E00109281008091810082608093810080918100816080938100809128
:2034000080008160809380008091B10084608093B1008091B00081608093B00080917A005E
:20342000846080937A0080917A00826080937A0080917A00816080937A0080917A008068B5
:2034400080937A001092C100E0919B02F0919C0282E08083E0919702F09198021082E091C2
:203460009902F0919A0280E180831092A302E0919F02F091A00286E08083E0919D02F091BA
:203480009E02808180618083E0919D02F0919E02808188608083E0919D02F0919E02808158
:2034A00080688083E0919D02F0919E0280818F7D808380915D0390915E03892B11F10E9495
:2034C000EC1520914403309145038091420390914303213231050CF052C0B90160527109B0
:2034E00077FF02C06F5F7F4F759567958357910997FD019600E210E023E730E04AE855E000
:2035000051C02091440330914503C901079697FD0796B3E095958795BA95E1F7209142030B
:2035200030914303AC01429FC001439F900D529F900D11240E94AE2290935E0380935D038A
:20354000892B09F0BCCF4AE25AE05A834983E981FA816491662361F08BE892E00E94DE0605
:2035600029813A812F5F3F4F3A832983892B79F766E671E08BE892E00E940E16FFCFB9016D
:203580006054710977FF02C06F5F7F4F759567958255910997FD019600E410E022E530E09C
:2035A0004AE657E0959587950E94930E82E08093600380915B0390915C03892B09F4FDC0E6
:2035C0008CE380935F030E94E70F8091660387FD1DC00E947B0561E0809166030E949B0575
:2035E00061E070E080E090E00E940C0660E0809166030E949B056AE070E080E090E00E94AE
:203600000C0661E0809166030E949B0580915B0390915C03892B09F48AC1209173033091C8
:203620007403409175035091760360E074E284EF90E00E94342020513109410951095695C7
:203640004795379527952093B80064E086E895E00E94B2116091440361508EE393E00E94A0
:20366000671264E082E895E00E94B2118091600364E1813009F460E18EE393E00E946712A2
:2036800064E08EE795E00E94B2118FE880937B0380914203909143038038910509F060C16A
:2036A00080914403909145038034910509F06DC180916003813009F451C18FEC80937B0398
:2036C00092E199836AED8EE393E00E94671269818EE393E00E94671261E88EE393E00E944D
:2036E000671260917B038EE393E00E94671269ED8EE393E00E9467128091600361EF813019
:2037000009F462E28EE393E00E94671266E088E795E00E94B21180915B0390915C03892B37
:2037200009F43CC120917703309178034091790350917A0360E074E284EF90E00E9434200E
:20374000205131094109510956954795379527952093B80010922C0310922B0386E090E0E9
:203760000E94AE229A83898388E4E981FA81808382E393E092838183138280E290E09583EA
:203780008483F0932903E09328030E94E70F81E0E981FA818383CF010E945014811108C1C0
:2037A00069E671E08BE892E00E940E1666E671E08BE892E00E940E16FFCF809164030E948E
:2037C0007B05809165030E947B0580916403082E000C990BFC01E459F54FE491F0E0EE0FB0
:2037E000FF1FE85AF54F2591349130936C0320936B03FC01E058F54FE491E0937103809171
:203800006503082E000C990BFC01E459F54FE491F0E0EE0FFF1FE85AF54FA591B491B09338
:203820006E03A0936D03FC01E058F54FE491E09372038C91E82BEC938091590390915A0304
:20384000892B09F433C05FB75983F8948091D201811124C0E6E7FAE08491EAE8FAE094915F
:20386000E82FF0E0EE0FFF1FEE59F54FA591B491EC91E92321F461E08AE00E949B058AE04B
:203880000E947B058CB580618CBD8CB580648CBD8DE00E947B058BE00E947B058091D2012D
:2038A0008F5F8093D20189818FBF8FCE809162030E947B05809163030E947B0580916203D8
:2038C000082E000C990BFC01E459F54FE491F0E0EE0FFF1FE85AF54F2591349130936803F5
:2038E00020936703FC01E058F54FE491E0936F0380916303082E000C990BFC01E459F54FFD
:20390000E491F0E0EE0FFF1FE85AF54FA591B491B0936A03A0936903FC01E058F54FE49109
:20392000E09370038C91E095E823EC934ECE8091590390915A03892B31F080917C039091F8
:203940007D030E94A909E0916D03F0916E0390818091720380958923808377CE8FE9AECE2C
:2039600080369105A9F48091440390914503409791F480916003813031F08FEA80937B03F1
:20398000E2E0E9839FCE80E1F9CFF2E0F9839ACE22E0298397CE32E0398394CEE0916D0389
:2039A000F0916E03808190917203892B8083D2CE0E94EC1582E0809352038093530381E0F0
:2039C00090E0909351038093500390934F0380934E0310924B0310924A0310924D0310924E
:2039E0004C036CE771E08EE393E00E940E1666E671E08EE393E00E940E160E94C91268EE10
:203A000073E080E090E00E940C0660912B0370912C0380912D0390912E03682B792B716CD9
:203A200081E00E94791460E070E883E00E94791470E060E082E00E94791481E00E949A14FA
:203A400097FFFBCF80E00E949A1420912A03022E02C0969587950A94E2F7222329F08115D4
:203A6000F8E09F0708F0906FBC01990F880B990B0E94812126EA3BE944E459E30E9436225F
:203A80006B017C0120E030E040E05FE30E94D22018160CF4A2C110920802109209021092AB
:203AA0000A0210920B0226E634E34DE85DE3609108027091090280910A0290910B020E94BF
:203AC0003622AB01BC014093040250930502609306027093070222E08BE892E00E94691653
:203AE00066E671E08BE892E00E940E164091040250910502609106027091070222E08BE847
:203B000092E00E94691666E671E08BE892E00E940E160E94EC15609108027091090280910F
:203B20000A0290910B020E94492127E0660F771F881F991F2A95D1F72EE130E040E050E0D8
:203B40000E9402204901EE24E394F12C00E110E020E830E050E040E070E060E08EE393E004
:203B60000E94B90C9401225031090EE010E041E050E061E070E08EE393E00E94AD0D82E03B
:203B8000809352038093530310924B0310924A0328E130E030934D0320934C034091040270
:203BA00050910502609106027091070222E08EE393E00E94691668E871E08EE393E00E94EC
:203BC0000E16609108027091090280910A0290910B020E9449219B01AC01ABE0B0E00E945D
:203BE00021202EE130E040E050E00E9402202F5F3F4F4F4F5F4F3C832B83809103028111D4
:203C00002CC04BEE51E05A83498303ED11E00E94AA1F20E830E040E050E00E940220E981C3
:203C2000FA8161937193FA83E9830E94AA1F28E030E040E050E00E94022080E490E0861B1C
:203C4000970BF801819391938F0129813A8123503240E9F681E08093030293ED492E91E0F7
:203C6000592E8BEE91E09A838983312C212CEB81FC812E163F060CF0FDC0F20180819181CF
:203C80000197883291050CF4E1C091838083F20160807180E981FA8121913191FA83E9837E
:203CA0003E832D83A3014E5F5F4F21E030E06D817E818EE393E00E948C0EA30142505109E6
:203CC00021E030E06D817E818EE393E00E948C0E6D817E816E5F7F4F21E030E0A3018EE318
:203CE00093E00E948C0E6D817E816250710921E030E0A3018EE393E00E948C0EEE24E3949E
:203D0000F12C02E010E05801A60CB71C8D809E808E0C9F1C21E030E0A501B4018EE393E006
:203D20000E948C0ECD80DE80CE18DF0821E030E0A501B6018EE393E00E948C0E5301A01A33
:203D4000B10A21E030E0A501B4018EE393E00E948C0E21E030E0A501B6018EE393E00E9428
:203D60008C0E5701A60CB71C8D809E80800E911E21E030E0A501B4018EE393E00E948C0ED8
:203D8000CD80DE80C01AD10A21E030E0A501B6018EE393E00E948C0E5301AE18BF0821E053
:203DA00030E0A501B4018EE393E00E948C0E21E030E0A501B6018EE393E00E948C0E3FEFBC
:203DC000E31AF30A0130110509F051C04FEF241A340A52E0450E511C4ACF20E030E040E99A
:203DE00050E4C701B6010E94312287FD0DC080E090E0A0EFB1E48093080290930902A09358
:203E00000A02B0930B024FCE20E030E040E05FE3C701B6010E94652020E030E040E85EE398
:203E20000E94362220E030E040EF51E40E94362220E030E0A9010E94662060930802709338
:203E4000090280930A0290930B022DCE2FE330E0318320830E94AA1F20E830E040E050E0C1
:203E60000E940220E981FA817183608310CF01E010E049CF0E94C9126AEF70E080E090E004
:203E80000E940C0680E090E0892B09F4BECD0E94A806882309F4B9CD0E940000B6CD82E35A
:203EA00091E090933F0380933E0380915D0390915E03009711F00C944A2308958F929F9251
:203EC000AF92BF92CF92DF92EF92FF92CF93DF93EC01688179818A819B816115710581052F
:203EE000910521F464E279ED8BE597E02DE133EF41E050E00E94022049015A019B01AC0151
:203F0000A7EAB1E40E9421206B017C01ACEEB4EFA50194010E942F20C60ED71EE81EF91E60
:203F2000F7FE06C081E0C81AD108E10880E8F80AC882D982EA82FB82C701B6019F77DF91C4
:203F4000CF91FF90EF90DF90CF90BF90AF909F908F9008958F929F92AF92BF92CF92DF92F6
:203F6000EF92FF9260910001709101018091020190910301611571058105910521F464E29E
:203F800079ED8BE597E02DE133EF41E050E00E94022049015A019B01AC01A7EAB1E40E94D9
:203FA00021206B017C01ACEEB4EFA50194010E942F20C60ED71EE81EF91EF7FE06C081E06C
:203FC000C81AD108E10880E8F80AC0920001D0920101E0920201F0920301C701B6019F778C
:203FE000FF90EF90DF90CF90BF90AF909F908F90089560930001709301018093020190933A
:2040000003010895052E97FB1EF400940E94192057FD07D00E94342007FC03D04EF40C94E0
:20402000192050954095309521953F4F4F4F5F4F089590958095709561957F4F8F4F9F4FCC
:2040400008950E945620A59F900DB49F900DA49F800D911D11240895B7FF0C9421200E9451
:204060002120821B930B0895A1E21A2EAA1BBB1BFD010DC0AA1FBB1FEE1FFF1FA217B307B5
:20408000E407F50720F0A21BB30BE40BF50B661F771F881F991F1A9469F760957095809528
:2040A00090959B01AC01BD01CF010895A29FB001B39FC001A39F700D811D1124911DB29FD1
:2040C000700D811D1124911D08955058BB27AA270E947D200C94F7210E94E92138F00E947D
:2040E000F02120F039F49F3F19F426F40C94E6210EF4E095E7FB0C94E021E92F0E940822E8
:2041000058F3BA17620773078407950720F079F4A6F50C942A220EF4E0950B2EBA2FA02D0F
:204120000B01B90190010C01CA01A0011124FF27591B99F0593F50F4503E68F11A16F04034
:20414000A22F232F342F4427585FF3CF469537952795A795F0405395C9F77EF41F16BA0B12
:20416000620B730B840BBAF09150A1F0FF0FBB1F661F771F881FC2F70EC0BA0F621F731F9C
:20418000841F48F4879577956795B795F7959E3F08F0B0CF9395880F08F09927EE0F979550
:2041A000879508950E94BC2108F481E008950E94EB200C94F7210E94F02158F00E94E921C1
:2041C00040F029F45F3F29F00C94E02151110C942B220C94E6210E94082268F39923B1F3BD
:2041E000552391F3951B550BBB27AA2762177307840738F09F5F5F4F220F331F441FAA1FFF
:20420000A9F335D00E2E3AF0E0E832D091505040E695001CCAF72BD0FE2F29D0660F771FD8
:20422000881FBB1F261737074807AB07B0E809F0BB0B802DBF01FF2793585F4F3AF09E3FF7
:20424000510578F00C94E0210C942B225F3FE4F3983ED4F3869577956795B795F7959F5F07
:20426000C9F7880F911D9695879597F90895E1E0660F771F881FBB1F621773078407BA0739
:2042800020F0621B730B840BBA0BEE1F88F7E09508950E9450216894B1110C942B220895C6
:2042A0000E94102288F09F5798F0B92F9927B751B0F0E1F0660F771F881F991F1AF0BA9550
:2042C000C9F714C0B13091F00E942A22B1E008950C942A22672F782F8827B85F39F0B93FBC
:2042E000CCF3869577956795B395D9F73EF490958095709561957F4F8F4F9F4F0895E894AA
:2043000009C097FB3EF490958095709561957F4F8F4F9F4F9923A9F0F92F96E9BB2793953B
:20432000F695879577956795B795F111F8CFFAF4BB0F11F460FF1BC06F5F7F4F8F4F9F4F5A
:2043400016C0882311F096E911C0772321F09EE8872F762F05C0662371F096E8862F70E0CD
:2043600060E02AF09A95660F771F881FDAF7880F9695879597F90895990F0008550FAA0B5D
:20438000E0E8FEEF16161706E807F907C0F012161306E407F50798F0621B730B840B950BA6
:2043A00039F40A2661F0232B242B252B21F408950A2609F4A140A6958FEF811D811D089510
:2043C00097F99F6780E870E060E008959FEF80EC089500240A941616170618060906089546
:2043E00000240A9412161306140605060895092E0394000C11F4882352F0BB0F40F4BF2B44
:2044000011F460FF04C06F5F7F4F8F4F9F4F089557FD9058440F551F59F05F3F71F0479548
:20442000880F97FB991F61F09F3F79F087950895121613061406551FF2CF4695F1DF08C047
:20444000161617061806991FF1CF86957105610508940895E894BB2766277727CB0197F968
:2044600008950E94BC2108F48FEF08950E9449220C94F7210E94E92138F00E94F02120F0AD
:20448000952311F00C94E0210C94E62111240C942B220E94082270F3959FC1F3950F50E00E
:2044A000551F629FF001729FBB27F00DB11D639FAA27F00DB11DAA1F649F6627B00DA11D66
:2044C000661F829F2227B00DA11D621F739FB00DA11D621F839FA00D611D221F749F3327E8
:2044E000A00D611D231F849F600D211D822F762F6A2F11249F5750409AF0F1F088234AF087
:20450000EE0FFF1FBB1F661F771F881F91505040A9F79E3F510580F00C94E0210C942B22A2
:204520005F3FE4F3983ED4F3869577956795B795F795E7959F5FC1F7FE2B880F911D9695A3
:20454000879597F908950E94BC21880B990B0895EE0FFF1F0590F491E02D09940F931F938C
:20456000CF93DF938230910510F482E090E0E0918003F091810330E020E0B0E0A0E0309769
:2045800099F42115310509F44AC0281B390B24303105D8F58A819B816115710589F1FB01B4
:2045A00093838283FE0111C0408151810281138148175907E0F04817590799F4109761F093
:2045C00012960C93129713961C933296CF01DF91CF911F910F910895009380031093810301
:2045E000F4CF2115310551F04217530738F0A901DB019A01BD01DF01F801C1CFEF01F9CF70
:204600009093810380938003CDCFFE01E20FF31F819391932250310939832883D7CF20911D
:204620007E0330917F03232B41F4209106013091070130937F0320937E03209104013091C2
:2046400005012115310541F42DB73EB74091080150910901241B350BE0917E03F0917F03A1
:20466000E217F307A0F42E1B3F0B2817390778F0AC014E5F5F4F2417350748F04E0F5F1FA7
:2046800050937F0340937E03819391939FCFF0E0E0E09CCFCF93DF930097E9F0FC013297B6
:2046A00013821282A0918003B0918103ED0130E020E01097A1F420813181820F931F2091D7
:2046C0007E0330917F032817390709F061C0F0937F03E0937E03DF91CF910895EA01CE1747
:2046E000DF07E8F54A815B819E0141155105B1F7E901FB83EA8349915991C40FD51FEC17FA
:20470000FD0761F4808191810296840F951FE90199838883828193819B838A83F0E0E0E06B
:2047200012968D919C9113970097B9F52D913C911197CD010296820F931F20917E033091C8
:204740007F032817390739F6309751F51092810310928003B0937F03A0937E03BCCFD38377
:20476000C28340815181840F951FC817D90761F44E5F5F4F88819981480F591F5183408322
:204780008A819B81938382832115310509F0B0CFF0938103E09380039ECFFD01DC01C0CF1F
:2047A00013821282D7CF81E090E0F8940C94DF23DC0101C06D9341505040E0F7089515E003
:2047C000CEE4D5E004C0FE010E94A8222196CF34D107C9F7F894FFCF010000000000820311
:2047E000800000000000DE063E066B062B079C067A068E06000000008011531176149A059A
:204800004C1139112A1100000000E70B3E067614A10FF2089A058C0E640E800E740EF40E8F
:204820009A05AD09FA136208AB08AD0D900D180DB90C6E616E00696E66006F7666000D0ADC
:204840000041445331313135206E6F7420666F756E6421005374617274696E672E2E2E0014
:20486000204241520000FFFFFFFFFFFFFFFFFFFFFFFFFFFFFFFFFFFFFFFFFFFFFFFFFFFF5D
:20488000FFFFFFFFFFFFFFFFFFFFFFFFFFFFFFFFFFFFFFFFFFFFFFFFFFFFFFFFFFFFFFFF38
:2048A000FFFFFFFFFFFFFFFFFFFFFFFFFFFFFFFFFFFFFFFFFFFFFFFFFFFFFFFFFFFFFFFF18
:2048C000FFFFFFFFFFFFFFFFFFFFFFFFFFFFFFFFFFFFFFFFFFFFFFFFFFFFFFFFFFFFFFFFF8
:2048E000FFFFFFFFFFFFFFFFFFFFFFFFFFFFFFFFFFFFFFFFFFFFFFFFFFFFFFFFFFFFFFFFD8
:207E0000112484B714BE81FFF0D085E08093810082E08093C00088E18093C10086E08093FC
:207E2000C20080E18093C4008EE0C9D0259A86E020E33CEF91E0309385002093840096BBAD
:207E4000B09BFECF1D9AA8958150A9F7CC24DD2488248394B5E0AB2EA1E19A2EF3E0BF2E79
:207E6000A2D0813461F49FD0082FAFD0023811F0013811F484E001C083E08DD089C0823404
:207E800011F484E103C0853419F485E0A6D080C0853579F488D0E82EFF2485D0082F10E0A0
:207EA000102F00270E291F29000F111F8ED068016FC0863521F484E090D080E0DECF84364D
:207EC00009F040C070D06FD0082F6DD080E0C81680E7D80618F4F601B7BEE895C0E0D1E0ED
:207EE00062D089930C17E1F7F0E0CF16F0E7DF0618F0F601B7BEE89568D007B600FCFDCF1A
:207F0000A601A0E0B1E02C9130E011968C91119790E0982F8827822B932B1296FA010C016F
:207F200087BEE89511244E5F5F4FF1E0A038BF0751F7F601A7BEE89507B600FCFDCF97BE85
:207F4000E89526C08437B1F42ED02DD0F82E2BD03CD0F601EF2C8F010F5F1F4F84911BD0B8
:207F6000EA94F801C1F70894C11CD11CFA94CF0CD11C0EC0853739F428D08EE10CD085E9AE
:207F80000AD08FE07ACF813511F488E018D01DD080E101D065CF982F8091C00085FFFCCF0A
:207FA0009093C60008958091C00087FFFCCF8091C00084FD01C0A8958091C6000895E0E68F
:207FC000F0E098E1908380830895EDDF803219F088E0F5DFFFCF84E1DECF1F93182FE3DF47
:207FE0001150E9F7F2DF1F91089580E0E8DFEE27FF270994FFFFFFFFFFFFFFFFFFFF040425
:00000001FF
